{
  "contractName": "EHR",
  "abi": [
    {
      "anonymous": false,
      "inputs": [
        {
          "indexed": false,
          "internalType": "string",
          "name": "cid",
          "type": "string"
        },
        {
          "indexed": false,
          "internalType": "address",
          "name": "patientAddress",
          "type": "address"
        },
        {
          "indexed": false,
          "internalType": "address",
          "name": "doctorAddress",
          "type": "address"
        }
      ],
      "name": "RecordAdded",
      "type": "event"
    },
    {
      "inputs": [
        {
          "internalType": "address",
          "name": "",
          "type": "address"
        },
        {
          "internalType": "uint256",
          "name": "",
          "type": "uint256"
        }
      ],
      "name": "allRecords",
      "outputs": [
        {
          "internalType": "string",
          "name": "cid",
          "type": "string"
        },
        {
          "internalType": "string",
          "name": "fileName",
          "type": "string"
        },
        {
          "internalType": "address",
          "name": "patientAddress",
          "type": "address"
        },
        {
          "internalType": "address",
          "name": "doctorAddress",
          "type": "address"
        },
        {
          "internalType": "uint256",
          "name": "timeAdded",
          "type": "uint256"
        }
      ],
      "stateMutability": "view",
      "type": "function",
      "constant": true
    },
    {
      "inputs": [
        {
          "internalType": "string",
          "name": "",
          "type": "string"
        }
      ],
      "name": "patientRecords",
      "outputs": [
        {
          "internalType": "string",
          "name": "cid",
          "type": "string"
        },
        {
          "internalType": "string",
          "name": "fileName",
          "type": "string"
        },
        {
          "internalType": "address",
          "name": "patientAddress",
          "type": "address"
        },
        {
          "internalType": "address",
          "name": "doctorAddress",
          "type": "address"
        },
        {
          "internalType": "uint256",
          "name": "timeAdded",
          "type": "uint256"
        }
      ],
      "stateMutability": "view",
      "type": "function",
      "constant": true
    },
    {
      "inputs": [
        {
          "internalType": "string",
          "name": "cid",
          "type": "string"
        },
        {
          "internalType": "string",
          "name": "fileName",
          "type": "string"
        },
        {
          "internalType": "address",
          "name": "patientAddress",
          "type": "address"
        },
        {
          "internalType": "address",
          "name": "doctorAddress",
          "type": "address"
        }
      ],
      "name": "addRecord",
      "outputs": [],
      "stateMutability": "nonpayable",
      "type": "function"
    },
    {
      "inputs": [
        {
          "internalType": "address",
          "name": "patientAddress",
          "type": "address"
        }
      ],
      "name": "getRecords",
      "outputs": [
        {
          "components": [
            {
              "internalType": "string",
              "name": "cid",
              "type": "string"
            },
            {
              "internalType": "string",
              "name": "fileName",
              "type": "string"
            },
            {
              "internalType": "address",
              "name": "patientAddress",
              "type": "address"
            },
            {
              "internalType": "address",
              "name": "doctorAddress",
              "type": "address"
            },
            {
              "internalType": "uint256",
              "name": "timeAdded",
              "type": "uint256"
            }
          ],
          "internalType": "struct EHR.Record[]",
          "name": "",
          "type": "tuple[]"
        }
      ],
      "stateMutability": "view",
      "type": "function",
      "constant": true
    }
  ],
  "bytecode": "0x608060405234801561001057600080fd5b50611702806100206000396000f3fe608060405234801561001057600080fd5b506004361061004c5760003560e01c80639423ab3f14610051578063a0076e841461006d578063d1d339691461009d578063d2303dad146100d1575b600080fd5b61006b60048036038101906100669190610c9b565b610105565b005b61008760048036038101906100829190610d3a565b61052c565b6040516100949190610f4d565b60405180910390f35b6100b760048036038101906100b29190610f9b565b6107a4565b6040516100c8959493929190611043565b60405180910390f35b6100eb60048036038101906100e691906110a4565b610947565b6040516100fc959493929190611043565b60405180910390f35b803373ffffffffffffffffffffffffffffffffffffffff168173ffffffffffffffffffffffffffffffffffffffff1614610174576040517f08c379a000000000000000000000000000000000000000000000000000000000815260040161016b90611139565b60405180910390fd5b846040516020016101859190611195565b604051602081830303815290604052805190602001206000866040516101ab9190611195565b90815260200160405180910390206000016040516020016101cc91906112a4565b6040516020818303038152906040528051906020012003610222576040517f08c379a000000000000000000000000000000000000000000000000000000000815260040161021990611307565b60405180910390fd5b60006040518060a001604052808781526020018681526020018573ffffffffffffffffffffffffffffffffffffffff1681526020018473ffffffffffffffffffffffffffffffffffffffff1681526020014281525090508060008760405161028a9190611195565b908152602001604051809103902060008201518160000190816102ad91906114be565b5060208201518160010190816102c391906114be565b5060408201518160020160006101000a81548173ffffffffffffffffffffffffffffffffffffffff021916908373ffffffffffffffffffffffffffffffffffffffff16021790555060608201518160030160006101000a81548173ffffffffffffffffffffffffffffffffffffffff021916908373ffffffffffffffffffffffffffffffffffffffff16021790555060808201518160040155905050600160008573ffffffffffffffffffffffffffffffffffffffff1673ffffffffffffffffffffffffffffffffffffffff1681526020019081526020016000206000876040516103ae9190611195565b90815260200160405180910390209080600181540180825580915050600190039060005260206000209060050201600090919091909150600082018160000190816103f991906115a6565b506001820181600101908161040e91906115a6565b506002820160009054906101000a900473ffffffffffffffffffffffffffffffffffffffff168160020160006101000a81548173ffffffffffffffffffffffffffffffffffffffff021916908373ffffffffffffffffffffffffffffffffffffffff1602179055506003820160009054906101000a900473ffffffffffffffffffffffffffffffffffffffff168160030160006101000a81548173ffffffffffffffffffffffffffffffffffffffff021916908373ffffffffffffffffffffffffffffffffffffffff1602179055506004820154816004015550507f79439a93ba0b8067e556b3942a78ac58d991c58e2e23041c4e7aa1c446fc118886858560405161051c9392919061168e565b60405180910390a1505050505050565b6060600160008373ffffffffffffffffffffffffffffffffffffffff1673ffffffffffffffffffffffffffffffffffffffff168152602001908152602001600020805480602002602001604051908101604052809291908181526020016000905b8282101561079957838290600052602060002090600502016040518060a00160405290816000820180546105c0906111db565b80601f01602080910402602001604051908101604052809291908181526020018280546105ec906111db565b80156106395780601f1061060e57610100808354040283529160200191610639565b820191906000526020600020905b81548152906001019060200180831161061c57829003601f168201915b50505050508152602001600182018054610652906111db565b80601f016020809104026020016040519081016040528092919081815260200182805461067e906111db565b80156106cb5780601f106106a0576101008083540402835291602001916106cb565b820191906000526020600020905b8154815290600101906020018083116106ae57829003601f168201915b505050505081526020016002820160009054906101000a900473ffffffffffffffffffffffffffffffffffffffff1673ffffffffffffffffffffffffffffffffffffffff1673ffffffffffffffffffffffffffffffffffffffff1681526020016003820160009054906101000a900473ffffffffffffffffffffffffffffffffffffffff1673ffffffffffffffffffffffffffffffffffffffff1673ffffffffffffffffffffffffffffffffffffffff1681526020016004820154815250508152602001906001019061058d565b505050509050919050565b600160205281600052604060002081815481106107c057600080fd5b9060005260206000209060050201600091509150508060000180546107e4906111db565b80601f0160208091040260200160405190810160405280929190818152602001828054610810906111db565b801561085d5780601f106108325761010080835404028352916020019161085d565b820191906000526020600020905b81548152906001019060200180831161084057829003601f168201915b505050505090806001018054610872906111db565b80601f016020809104026020016040519081016040528092919081815260200182805461089e906111db565b80156108eb5780601f106108c0576101008083540402835291602001916108eb565b820191906000526020600020905b8154815290600101906020018083116108ce57829003601f168201915b5050505050908060020160009054906101000a900473ffffffffffffffffffffffffffffffffffffffff16908060030160009054906101000a900473ffffffffffffffffffffffffffffffffffffffff16908060040154905085565b600081805160208101820180518482526020830160208501208183528095505050505050600091509050806000018054610980906111db565b80601f01602080910402602001604051908101604052809291908181526020018280546109ac906111db565b80156109f95780601f106109ce576101008083540402835291602001916109f9565b820191906000526020600020905b8154815290600101906020018083116109dc57829003601f168201915b505050505090806001018054610a0e906111db565b80601f0160208091040260200160405190810160405280929190818152602001828054610a3a906111db565b8015610a875780601f10610a5c57610100808354040283529160200191610a87565b820191906000526020600020905b815481529060010190602001808311610a6a57829003601f168201915b5050505050908060020160009054906101000a900473ffffffffffffffffffffffffffffffffffffffff16908060030160009054906101000a900473ffffffffffffffffffffffffffffffffffffffff16908060040154905085565b6000604051905090565b600080fd5b600080fd5b600080fd5b600080fd5b6000601f19601f8301169050919050565b7f4e487b7100000000000000000000000000000000000000000000000000000000600052604160045260246000fd5b610b4a82610b01565b810181811067ffffffffffffffff82111715610b6957610b68610b12565b5b80604052505050565b6000610b7c610ae3565b9050610b888282610b41565b919050565b600067ffffffffffffffff821115610ba857610ba7610b12565b5b610bb182610b01565b9050602081019050919050565b82818337600083830152505050565b6000610be0610bdb84610b8d565b610b72565b905082815260208101848484011115610bfc57610bfb610afc565b5b610c07848285610bbe565b509392505050565b600082601f830112610c2457610c23610af7565b5b8135610c34848260208601610bcd565b91505092915050565b600073ffffffffffffffffffffffffffffffffffffffff82169050919050565b6000610c6882610c3d565b9050919050565b610c7881610c5d565b8114610c8357600080fd5b50565b600081359050610c9581610c6f565b92915050565b60008060008060808587031215610cb557610cb4610aed565b5b600085013567ffffffffffffffff811115610cd357610cd2610af2565b5b610cdf87828801610c0f565b945050602085013567ffffffffffffffff811115610d0057610cff610af2565b5b610d0c87828801610c0f565b9350506040610d1d87828801610c86565b9250506060610d2e87828801610c86565b91505092959194509250565b600060208284031215610d5057610d4f610aed565b5b6000610d5e84828501610c86565b91505092915050565b600081519050919050565b600082825260208201905092915050565b6000819050602082019050919050565b600081519050919050565b600082825260208201905092915050565b60005b83811015610dcd578082015181840152602081019050610db2565b60008484015250505050565b6000610de482610d93565b610dee8185610d9e565b9350610dfe818560208601610daf565b610e0781610b01565b840191505092915050565b610e1b81610c5d565b82525050565b6000819050919050565b610e3481610e21565b82525050565b600060a0830160008301518482036000860152610e578282610dd9565b91505060208301518482036020860152610e718282610dd9565b9150506040830151610e866040860182610e12565b506060830151610e996060860182610e12565b506080830151610eac6080860182610e2b565b508091505092915050565b6000610ec38383610e3a565b905092915050565b6000602082019050919050565b6000610ee382610d67565b610eed8185610d72565b935083602082028501610eff85610d83565b8060005b85811015610f3b5784840389528151610f1c8582610eb7565b9450610f2783610ecb565b925060208a01995050600181019050610f03565b50829750879550505050505092915050565b60006020820190508181036000830152610f678184610ed8565b905092915050565b610f7881610e21565b8114610f8357600080fd5b50565b600081359050610f9581610f6f565b92915050565b60008060408385031215610fb257610fb1610aed565b5b6000610fc085828601610c86565b9250506020610fd185828601610f86565b9150509250929050565b600082825260208201905092915050565b6000610ff782610d93565b6110018185610fdb565b9350611011818560208601610daf565b61101a81610b01565b840191505092915050565b61102e81610c5d565b82525050565b61103d81610e21565b82525050565b600060a082019050818103600083015261105d8188610fec565b905081810360208301526110718187610fec565b90506110806040830186611025565b61108d6060830185611025565b61109a6080830184611034565b9695505050505050565b6000602082840312156110ba576110b9610aed565b5b600082013567ffffffffffffffff8111156110d8576110d7610af2565b5b6110e484828501610c0f565b91505092915050565b7f53656e646572206973206e6f74206120646f63746f7200000000000000000000600082015250565b6000611123601683610fdb565b915061112e826110ed565b602082019050919050565b6000602082019050818103600083015261115281611116565b9050919050565b600081905092915050565b600061116f82610d93565b6111798185611159565b9350611189818560208601610daf565b80840191505092915050565b60006111a18284611164565b915081905092915050565b7f4e487b7100000000000000000000000000000000000000000000000000000000600052602260045260246000fd5b600060028204905060018216806111f357607f821691505b602082108103611206576112056111ac565b5b50919050565b60008190508160005260206000209050919050565b6000815461122e816111db565b6112388186611159565b9450600182166000811461125357600181146112685761129b565b60ff198316865281151582028601935061129b565b6112718561120c565b60005b8381101561129357815481890152600182019150602081019050611274565b838801955050505b50505092915050565b60006112b08284611221565b915081905092915050565b7f54686973205265636f726420616c7265616479206578697374732e0000000000600082015250565b60006112f1601b83610fdb565b91506112fc826112bb565b602082019050919050565b60006020820190508181036000830152611320816112e4565b9050919050565b60006020601f8301049050919050565b600082821b905092915050565b6000600883026113747fffffffffffffffffffffffffffffffffffffffffffffffffffffffffffffffff82611337565b61137e8683611337565b95508019841693508086168417925050509392505050565b6000819050919050565b60006113bb6113b66113b184610e21565b611396565b610e21565b9050919050565b6000819050919050565b6113d5836113a0565b6113e96113e1826113c2565b848454611344565b825550505050565b600090565b6113fe6113f1565b6114098184846113cc565b505050565b5b8181101561142d576114226000826113f6565b60018101905061140f565b5050565b601f821115611472576114438161120c565b61144c84611327565b8101602085101561145b578190505b61146f61146785611327565b83018261140e565b50505b505050565b600082821c905092915050565b600061149560001984600802611477565b1980831691505092915050565b60006114ae8383611484565b9150826002028217905092915050565b6114c782610d93565b67ffffffffffffffff8111156114e0576114df610b12565b5b6114ea82546111db565b6114f5828285611431565b600060209050601f8311600181146115285760008415611516578287015190505b61152085826114a2565b865550611588565b601f1984166115368661120c565b60005b8281101561155e57848901518255600182019150602085019450602081019050611539565b8683101561157b5784890151611577601f891682611484565b8355505b6001600288020188555050505b505050505050565b60008154905061159f816111db565b9050919050565b8181036115b457505061168c565b6115bd82611590565b67ffffffffffffffff8111156115d6576115d5610b12565b5b6115e082546111db565b6115eb828285611431565b6000601f83116001811461161a5760008415611608578287015490505b61161285826114a2565b865550611685565b601f1984166116288761120c565b96506116338661120c565b60005b8281101561165b57848901548255600182019150600185019450602081019050611636565b868310156116785784890154611674601f891682611484565b8355505b6001600288020188555050505b5050505050505b565b600060608201905081810360008301526116a88186610fec565b90506116b76020830185611025565b6116c46040830184611025565b94935050505056fea26469706673582212201b8abd337360d3ad9388d33c9c339a1c319f1a589be5e1a827ab982a2795c26664736f6c63430008130033",
  "immutableReferences": {},
  "source": "// SPDX-License-Identifier: UNLICENSED\r\npragma solidity 0.8.19;\r\n\r\ncontract EHR {\r\n    struct Record {\r\n        string cid;\r\n        string fileName;\r\n        address patientAddress;\r\n        address doctorAddress;\r\n        uint256 timeAdded;\r\n    }\r\n\r\n    mapping(string => Record) public patientRecords;\r\n    mapping(address => Record[]) public allRecords;\r\n\r\n    // events\r\n    event RecordAdded(\r\n        string cid,\r\n        address patientAddress,\r\n        address doctorAddress\r\n    );\r\n\r\n    // modifiers\r\n    modifier senderIsDoctor(address doctorAddress) {\r\n        require(doctorAddress == msg.sender, \"Sender is not a doctor\");\r\n        _;\r\n    }\r\n\r\n    function addRecord(\r\n        string memory cid,\r\n        string memory fileName,\r\n        address patientAddress,\r\n        address doctorAddress\r\n    ) public senderIsDoctor(doctorAddress) {\r\n        require(\r\n            keccak256(abi.encodePacked(patientRecords[cid].cid)) !=\r\n                keccak256(abi.encodePacked(cid)),\r\n            \"This Record already exists.\"\r\n        );\r\n\r\n        Record memory record = Record(\r\n            cid,\r\n            fileName,\r\n            patientAddress,\r\n            doctorAddress,\r\n            block.timestamp\r\n        );\r\n\r\n        patientRecords[cid] = record;\r\n        allRecords[patientAddress].push(patientRecords[cid]);\r\n\r\n        emit RecordAdded(cid, patientAddress, doctorAddress);\r\n    }\r\n\r\n    function getRecords(\r\n        address patientAddress\r\n    ) public view returns (Record[] memory) {\r\n        return allRecords[patientAddress];\r\n    }\r\n}\r\n\r\n// contract EHR {\r\n//     struct Record {\r\n//         string cid;\r\n//         string fileName;\r\n//         address patientId;\r\n//         address doctorId;\r\n//         uint256 timeAdded;\r\n//     }\r\n\r\n//     struct Patient {\r\n//         address id;\r\n//         Record[] records;\r\n//     }\r\n\r\n//     struct Doctor {\r\n//         address id;\r\n//     }\r\n\r\n//     mapping(address => Patient) public patients;\r\n//     mapping(address => Doctor) public doctors;\r\n\r\n//     // events\r\n//     event PatientAdded(address patientId);\r\n//     event DoctorAdded(address doctorId);\r\n//     event RecordAdded(string cid, address patientId, address doctorId);\r\n\r\n//     // modifiers\r\n//     modifier senderExists() {\r\n//         require(\r\n//             doctors[msg.sender].id == msg.sender ||\r\n//                 patients[msg.sender].id == msg.sender,\r\n//             \"Sender does not exist\"\r\n//         );\r\n//         _;\r\n//     }\r\n\r\n//     modifier patientExists(address patientId) {\r\n//         require(patients[patientId].id == patientId, \"Patient does not exist\");\r\n//         _;\r\n//     }\r\n\r\n//     modifier senderIsDoctor() {\r\n//         require(doctors[msg.sender].id == msg.sender, \"Sender is not a doctor\");\r\n//         _;\r\n//     }\r\n\r\n//     // Patient Functions\r\n//     function addPatient(address _patientId) public senderIsDoctor {\r\n//         require(\r\n//             patients[_patientId].id != _patientId,\r\n//             \"This patient already exists.\"\r\n//         );\r\n//         patients[_patientId].id = _patientId;\r\n\r\n//         emit PatientAdded(_patientId);\r\n//     }\r\n\r\n//     function getPatient(\r\n//         address _patientId\r\n//     ) public view returns (Patient memory) {\r\n//         if (patients[_patientId].id != _patientId) revert(\"Not a patient\");\r\n\r\n//         return patients[_patientId];\r\n//     }\r\n\r\n//     function getPatientExists(\r\n//         address _patientId\r\n//     ) public view senderIsDoctor returns (bool) {\r\n//         return patients[_patientId].id == _patientId;\r\n//     }\r\n\r\n//     // Doctor Functions\r\n//     function addDoctor() public {\r\n//         require(\r\n//             doctors[msg.sender].id != msg.sender,\r\n//             \"This doctor already exists.\"\r\n//         );\r\n//         doctors[msg.sender].id = msg.sender;\r\n\r\n//         emit DoctorAdded(msg.sender);\r\n//     }\r\n\r\n//     function getDoctor(address _doctorId) public view returns (Doctor memory) {\r\n//         if (doctors[_doctorId].id != _doctorId) revert(\"Not a doctor\");\r\n\r\n//         return doctors[_doctorId];\r\n//     }\r\n\r\n//     // Record Functions\r\n//     function addRecord(\r\n//         string memory _cid,\r\n//         string memory _fileName,\r\n//         address _patientId\r\n//     ) public senderIsDoctor patientExists(_patientId) {\r\n//         Record memory record = Record(\r\n//             _cid,\r\n//             _fileName,\r\n//             _patientId,\r\n//             msg.sender,\r\n//             block.timestamp\r\n//         );\r\n//         patients[_patientId].records.push(record);\r\n\r\n//         emit RecordAdded(_cid, _patientId, msg.sender);\r\n//     }\r\n\r\n//     function getRecords(\r\n//         address _patientId\r\n//     )\r\n//         public\r\n//         view\r\n//         senderExists\r\n//         patientExists(_patientId)\r\n//         returns (Record[] memory)\r\n//     {\r\n//         return patients[_patientId].records;\r\n//     }\r\n\r\n//     // Utils\r\n//     function getSenderRole() public view returns (string memory) {\r\n//         if (doctors[msg.sender].id == msg.sender) {\r\n//             return \"doctor\";\r\n//         } else if (patients[msg.sender].id == msg.sender) {\r\n//             return \"patient\";\r\n//         } else {\r\n//             return \"unknown\";\r\n//         }\r\n//     }\r\n// }\r\n",
  "sourcePath": "E:\\Projects\\MobiCare\\mobile\\mobicare\\contracts\\EHR.sol",
  "compiler": {
    "name": "solc",
    "version": "0.8.19+commit.7dd6d404.Emscripten.clang"
  },
  "schemaVersion": "3.4.12",
  "updatedAt": "2023-04-11T21:48:06.956Z",
  "networkType": "ethereum",
  "devdoc": {
    "kind": "dev",
    "methods": {},
    "version": 1
  },
  "userdoc": {
    "kind": "user",
    "methods": {},
    "version": 1
  }
}