{
  "contractName": "EHR",
  "abi": [
    {
      "anonymous": false,
      "inputs": [
        {
          "indexed": false,
          "internalType": "string",
          "name": "cid",
          "type": "string"
        },
        {
          "indexed": false,
          "internalType": "uint256",
          "name": "timestamp",
          "type": "uint256"
        },
        {
          "indexed": false,
          "internalType": "uint256",
          "name": "number",
          "type": "uint256"
        }
      ],
      "name": "RecordAdded",
      "type": "event"
    },
    {
      "inputs": [
        {
          "internalType": "string",
          "name": "cid",
          "type": "string"
        },
        {
          "internalType": "address",
          "name": "patientAddress",
          "type": "address"
        }
      ],
      "name": "addRecord",
      "outputs": [],
      "stateMutability": "nonpayable",
      "type": "function"
    },
    {
      "inputs": [
        {
          "internalType": "address",
          "name": "patientAddress",
          "type": "address"
        }
      ],
      "name": "getRecords",
      "outputs": [
        {
          "components": [
            {
              "internalType": "string",
              "name": "cid",
              "type": "string"
            },
            {
              "internalType": "uint256",
              "name": "timestamp",
              "type": "uint256"
            }
          ],
          "internalType": "struct EHR.Record[]",
          "name": "",
          "type": "tuple[]"
        }
      ],
      "stateMutability": "view",
      "type": "function"
    }
  ],
  "bytecode": "0x608060405234801561001057600080fd5b50610bdc806100206000396000f3fe608060405234801561001057600080fd5b50600436106100365760003560e01c8063172847b51461003b578063a0076e8414610057575b600080fd5b61005560048036038101906100509190610578565b610087565b005b610071600480360381019061006c91906105d4565b610286565b60405161007e9190610798565b60405180910390f35b600160008273ffffffffffffffffffffffffffffffffffffffff1673ffffffffffffffffffffffffffffffffffffffff1681526020019081526020016000206040518060400160405280848152602001428152509080600181540180825580915050600190039060005260206000209060020201600090919091909150600082015181600001908161011991906109c6565b5060208201518160010155505060016000808373ffffffffffffffffffffffffffffffffffffffff1673ffffffffffffffffffffffffffffffffffffffff16815260200190815260200160002054106101c4576000808273ffffffffffffffffffffffffffffffffffffffff1673ffffffffffffffffffffffffffffffffffffffff16815260200190815260200160002060008154809291906101bb90610ac7565b91905055610208565b60016000808373ffffffffffffffffffffffffffffffffffffffff1673ffffffffffffffffffffffffffffffffffffffff1681526020019081526020016000208190555b507f92db3e34ef7b7e6f0158d314573310d8ae5792b5e861073cb920a621fbba4de382426000808573ffffffffffffffffffffffffffffffffffffffff1673ffffffffffffffffffffffffffffffffffffffff1681526020019081526020016000205460405161027a93929190610b68565b60405180910390a15050565b6060600160008373ffffffffffffffffffffffffffffffffffffffff1673ffffffffffffffffffffffffffffffffffffffff168152602001908152602001600020805480602002602001604051908101604052809291908181526020016000905b828210156103b5578382906000526020600020906002020160405180604001604052908160008201805461031a906107e9565b80601f0160208091040260200160405190810160405280929190818152602001828054610346906107e9565b80156103935780601f1061036857610100808354040283529160200191610393565b820191906000526020600020905b81548152906001019060200180831161037657829003601f168201915b50505050508152602001600182015481525050815260200190600101906102e7565b505050509050919050565b6000604051905090565b600080fd5b600080fd5b600080fd5b600080fd5b6000601f19601f8301169050919050565b7f4e487b7100000000000000000000000000000000000000000000000000000000600052604160045260246000fd5b610427826103de565b810181811067ffffffffffffffff82111715610446576104456103ef565b5b80604052505050565b60006104596103c0565b9050610465828261041e565b919050565b600067ffffffffffffffff821115610485576104846103ef565b5b61048e826103de565b9050602081019050919050565b82818337600083830152505050565b60006104bd6104b88461046a565b61044f565b9050828152602081018484840111156104d9576104d86103d9565b5b6104e484828561049b565b509392505050565b600082601f830112610501576105006103d4565b5b81356105118482602086016104aa565b91505092915050565b600073ffffffffffffffffffffffffffffffffffffffff82169050919050565b60006105458261051a565b9050919050565b6105558161053a565b811461056057600080fd5b50565b6000813590506105728161054c565b92915050565b6000806040838503121561058f5761058e6103ca565b5b600083013567ffffffffffffffff8111156105ad576105ac6103cf565b5b6105b9858286016104ec565b92505060206105ca85828601610563565b9150509250929050565b6000602082840312156105ea576105e96103ca565b5b60006105f884828501610563565b91505092915050565b600081519050919050565b600082825260208201905092915050565b6000819050602082019050919050565b600081519050919050565b600082825260208201905092915050565b60005b8381101561066757808201518184015260208101905061064c565b60008484015250505050565b600061067e8261062d565b6106888185610638565b9350610698818560208601610649565b6106a1816103de565b840191505092915050565b6000819050919050565b6106bf816106ac565b82525050565b600060408301600083015184820360008601526106e28282610673565b91505060208301516106f760208601826106b6565b508091505092915050565b600061070e83836106c5565b905092915050565b6000602082019050919050565b600061072e82610601565b610738818561060c565b93508360208202850161074a8561061d565b8060005b8581101561078657848403895281516107678582610702565b945061077283610716565b925060208a0199505060018101905061074e565b50829750879550505050505092915050565b600060208201905081810360008301526107b28184610723565b905092915050565b7f4e487b7100000000000000000000000000000000000000000000000000000000600052602260045260246000fd5b6000600282049050600182168061080157607f821691505b602082108103610814576108136107ba565b5b50919050565b60008190508160005260206000209050919050565b60006020601f8301049050919050565b600082821b905092915050565b60006008830261087c7fffffffffffffffffffffffffffffffffffffffffffffffffffffffffffffffff8261083f565b610886868361083f565b95508019841693508086168417925050509392505050565b6000819050919050565b60006108c36108be6108b9846106ac565b61089e565b6106ac565b9050919050565b6000819050919050565b6108dd836108a8565b6108f16108e9826108ca565b84845461084c565b825550505050565b600090565b6109066108f9565b6109118184846108d4565b505050565b5b818110156109355761092a6000826108fe565b600181019050610917565b5050565b601f82111561097a5761094b8161081a565b6109548461082f565b81016020851015610963578190505b61097761096f8561082f565b830182610916565b50505b505050565b600082821c905092915050565b600061099d6000198460080261097f565b1980831691505092915050565b60006109b6838361098c565b9150826002028217905092915050565b6109cf8261062d565b67ffffffffffffffff8111156109e8576109e76103ef565b5b6109f282546107e9565b6109fd828285610939565b600060209050601f831160018114610a305760008415610a1e578287015190505b610a2885826109aa565b865550610a90565b601f198416610a3e8661081a565b60005b82811015610a6657848901518255600182019150602085019450602081019050610a41565b86831015610a835784890151610a7f601f89168261098c565b8355505b6001600288020188555050505b505050505050565b7f4e487b7100000000000000000000000000000000000000000000000000000000600052601160045260246000fd5b6000610ad2826106ac565b91507fffffffffffffffffffffffffffffffffffffffffffffffffffffffffffffffff8203610b0457610b03610a98565b5b600182019050919050565b600082825260208201905092915050565b6000610b2b8261062d565b610b358185610b0f565b9350610b45818560208601610649565b610b4e816103de565b840191505092915050565b610b62816106ac565b82525050565b60006060820190508181036000830152610b828186610b20565b9050610b916020830185610b59565b610b9e6040830184610b59565b94935050505056fea26469706673582212205a8598f65d5e6f16893f54159f6babacb59229ef6f216f62024ca4181d1022d364736f6c63430008130033",
  "immutableReferences": {},
  "source": "// SPDX-License-Identifier: UNLICENSED\r\npragma solidity 0.8.19;\r\n\r\ncontract EHR {\r\n    struct Record {\r\n        string cid;\r\n        uint256 timestamp;\r\n    }\r\n\r\n    mapping(address => uint) recordCount;\r\n    mapping(address => Record[]) allRecords;\r\n\r\n    // events\r\n    event RecordAdded(string cid, uint256 timestamp, uint number);\r\n\r\n    function addRecord(string memory cid, address patientAddress) public {\r\n        allRecords[patientAddress].push(Record(cid, block.timestamp));\r\n        recordCount[patientAddress] < 1 ? recordCount[patientAddress] = 1 : recordCount[patientAddress]++;\r\n\r\n        emit RecordAdded(cid, block.timestamp, recordCount[patientAddress]);\r\n    }\r\n\r\n    function getRecords(\r\n        address patientAddress\r\n    ) public view returns (Record[] memory) {\r\n        return allRecords[patientAddress];\r\n    }\r\n}\r\n\r\n\r\n",
  "sourcePath": "E:\\Projects\\MobiCare\\mobile\\MobiCare\\contracts\\EHR.sol",
  "compiler": {
    "name": "solc",
    "version": "0.8.19+commit.7dd6d404.Emscripten.clang"
  },
  "schemaVersion": "3.4.12",
  "updatedAt": "2023-04-20T08:08:09.655Z",
  "devdoc": {
    "kind": "dev",
    "methods": {},
    "version": 1
  },
  "userdoc": {
    "kind": "user",
    "methods": {},
    "version": 1
  }
}